{"abi":[{"type":"function","name":"approve","inputs":[{"name":"spender","type":"address","internalType":"address"},{"name":"id","type":"uint256","internalType":"uint256"}],"outputs":[],"stateMutability":"payable"},{"type":"function","name":"balanceOf","inputs":[{"name":"owner","type":"address","internalType":"address"}],"outputs":[{"name":"","type":"uint256","internalType":"uint256"}],"stateMutability":"view"},{"type":"function","name":"getApproved","inputs":[{"name":"id","type":"uint256","internalType":"uint256"}],"outputs":[{"name":"","type":"address","internalType":"address"}],"stateMutability":"view"},{"type":"function","name":"initialize","inputs":[{"name":"name_","type":"string","internalType":"string"},{"name":"symbol_","type":"string","internalType":"string"}],"outputs":[],"stateMutability":"nonpayable"},{"type":"function","name":"isApprovedForAll","inputs":[{"name":"owner","type":"address","internalType":"address"},{"name":"operator","type":"address","internalType":"address"}],"outputs":[{"name":"","type":"bool","internalType":"bool"}],"stateMutability":"view"},{"type":"function","name":"name","inputs":[],"outputs":[{"name":"","type":"string","internalType":"string"}],"stateMutability":"view"},{"type":"function","name":"ownerOf","inputs":[{"name":"id","type":"uint256","internalType":"uint256"}],"outputs":[{"name":"owner","type":"address","internalType":"address"}],"stateMutability":"view"},{"type":"function","name":"safeTransferFrom","inputs":[{"name":"from","type":"address","internalType":"address"},{"name":"to","type":"address","internalType":"address"},{"name":"id","type":"uint256","internalType":"uint256"}],"outputs":[],"stateMutability":"payable"},{"type":"function","name":"safeTransferFrom","inputs":[{"name":"from","type":"address","internalType":"address"},{"name":"to","type":"address","internalType":"address"},{"name":"id","type":"uint256","internalType":"uint256"},{"name":"data","type":"bytes","internalType":"bytes"}],"outputs":[],"stateMutability":"payable"},{"type":"function","name":"setApprovalForAll","inputs":[{"name":"operator","type":"address","internalType":"address"},{"name":"approved","type":"bool","internalType":"bool"}],"outputs":[],"stateMutability":"nonpayable"},{"type":"function","name":"supportsInterface","inputs":[{"name":"interfaceId","type":"bytes4","internalType":"bytes4"}],"outputs":[{"name":"","type":"bool","internalType":"bool"}],"stateMutability":"view"},{"type":"function","name":"symbol","inputs":[],"outputs":[{"name":"","type":"string","internalType":"string"}],"stateMutability":"view"},{"type":"function","name":"tokenURI","inputs":[{"name":"id","type":"uint256","internalType":"uint256"}],"outputs":[{"name":"","type":"string","internalType":"string"}],"stateMutability":"view"},{"type":"function","name":"transferFrom","inputs":[{"name":"from","type":"address","internalType":"address"},{"name":"to","type":"address","internalType":"address"},{"name":"id","type":"uint256","internalType":"uint256"}],"outputs":[],"stateMutability":"payable"},{"type":"event","name":"Approval","inputs":[{"name":"_owner","type":"address","indexed":true,"internalType":"address"},{"name":"_approved","type":"address","indexed":true,"internalType":"address"},{"name":"_tokenId","type":"uint256","indexed":true,"internalType":"uint256"}],"anonymous":false},{"type":"event","name":"ApprovalForAll","inputs":[{"name":"_owner","type":"address","indexed":true,"internalType":"address"},{"name":"_operator","type":"address","indexed":true,"internalType":"address"},{"name":"_approved","type":"bool","indexed":false,"internalType":"bool"}],"anonymous":false},{"type":"event","name":"Transfer","inputs":[{"name":"_from","type":"address","indexed":true,"internalType":"address"},{"name":"_to","type":"address","indexed":true,"internalType":"address"},{"name":"_tokenId","type":"uint256","indexed":true,"internalType":"uint256"}],"anonymous":false}],"bytecode":{"object":"0x60808060405234601557610e8c908161001a8239f35b5f80fdfe6080806040526004361015610012575f80fd5b5f3560e01c90816301ffc9a714610a1d5750806306fdde031461098e578063081812fc1461095c578063095ea7b3146108a657806323b872dd1461089457806342842e0e146107d55780634cd88b76146104bd5780636352211e1461044f57806370a08231146103dd57806395d89b411461030e578063a22cb46514610285578063b88d4fde14610155578063c87b56dd146101115763e985e9c5146100b6575f80fd5b3461010d57604036600319011261010d576100cf610aac565b6100d7610ac2565b9060018060a01b03165f52600560205260405f209060018060a01b03165f52602052602060ff60405f2054166040519015158152f35b5f80fd5b3461010d57602036600319011261010d5760405160208152602081816060518082840152806080604085015e5f8382018301830152601f01601f1916820101030190f35b608036600319011261010d57610169610aac565b610171610ac2565b6044359060643567ffffffffffffffff811161010d573660238201121561010d576101a6903690602481600401359101610b34565b906101b2838286610c0d565b803b159283156101c8575b6101c684610dd7565b005b604051630a85bd0160e11b81523360048201526001600160a01b03909516602486015260448501526080606485015260209250839182905f908290610211906084830190610a88565b03926001600160a01b03165af1801561027a576101c6915f9161024b575b506001600160e01b031916630a85bd0160e11b148280806101bd565b61026d915060203d602011610273575b6102658183610b12565b810190610db7565b8261022f565b503d61025b565b6040513d5f823e3d90fd5b3461010d57604036600319011261010d5761029e610aac565b6024359081151580920361010d57335f52600560205260405f2060018060a01b0382165f5260205260405f2060ff1981541660ff841617905560405191825260018060a01b0316907f17307eab39ab6107e8899845ad3d59bd9653f200f220920489ca2b5937696c3160203392a3005b3461010d575f36600319011261010d576040515f60015461032e81610b98565b80845290600181169081156103b9575060011461036e575b61036a8361035681850382610b12565b604051918291602083526020830190610a88565b0390f35b91905060015f525f516020610e375f395f51905f52915f905b80821061039f57509091508101602001610356610346565b919260018160209254838588010152019101909291610387565b60ff191660208086019190915291151560051b840190910191506103569050610346565b3461010d57602036600319011261010d576001600160a01b036103fe610aac565b16801561041b575f526003602052602060405f2054604051908152f35b60405162461bcd60e51b815260206004820152600c60248201526b5a45524f5f4144445245535360a01b6044820152606490fd5b3461010d57602036600319011261010d576004355f908152600260205260409020546001600160a01b0316801561048b57602090604051908152f35b60405162461bcd60e51b815260206004820152600a6024820152691393d517d3525395115160b21b6044820152606490fd5b3461010d57604036600319011261010d5760043567ffffffffffffffff811161010d576104ee903690600401610b7a565b60243567ffffffffffffffff811161010d5761050e903690600401610b7a565b60ff6006541661079a57815167ffffffffffffffff81116106aa576105335f54610b98565b601f8111610733575b50602092601f82116001146106c957928192935f926106be575b50508160011b915f199060031b1c1916175f555b805167ffffffffffffffff81116106aa57610586600154610b98565b601f8111610642575b50602091601f82116001146105d7579181925f926105cc575b50508160011b915f199060031b1c1916176001555b6006805460ff19166001179055005b0151905082806105a8565b601f1982169260015f525f516020610e375f395f51905f52915f5b85811061062a57508360019510610612575b505050811b016001556105bd565b01515f1960f88460031b161c19169055828080610604565b919260206001819286850151815501940192016105f2565b60015f52601f820160051c5f516020610e375f395f51905f52019060208310610695575b601f0160051c5f516020610e375f395f51905f5201905b81811061068a575061058f565b5f815560010161067d565b5f516020610e375f395f51905f529150610666565b634e487b7160e01b5f52604160045260245ffd5b015190508380610556565b601f198216935f80525f516020610e175f395f51905f52915f5b86811061071b5750836001959610610703575b505050811b015f5561056a565b01515f1960f88460031b161c191690558380806106f6565b919260206001819286850151815501940192016106e3565b5f8052601f820160051c5f516020610e175f395f51905f52019060208310610785575b601f0160051c5f516020610e175f395f51905f5201905b81811061077a575061053c565b5f815560010161076d565b5f516020610e175f395f51905f529150610756565b60405162461bcd60e51b81526020600482015260136024820152721053149150511657d253925512505312569151606a1b6044820152606490fd5b6107de36610ad8565b6107eb8183859495610c0d565b823b159182156107ff575b6101c683610dd7565b604051630a85bd0160e11b81523360048201526001600160a01b0391821660248201526044810192909252608060648301525f60848301819052919360209350849260a4928492165af1801561027a576101c6915f91610875575b506001600160e01b031916630a85bd0160e11b1482806107f6565b61088e915060203d602011610273576102658183610b12565b8261085a565b6101c66108a036610ad8565b91610c0d565b604036600319011261010d576108ba610aac565b60243590815f52600260205260018060a01b0360405f20541690813314801561093a575b6108e790610bd0565b5f83815260046020526040812080546001600160a01b0319166001600160a01b039390931692831790559091907f8c5be1e5ebec7d5bd14f71427d1e84f3dd0314c0f7b2291e5b200ac8c7c3b9259080a4005b505f82815260056020908152604080832033845290915290205460ff166108de565b3461010d57602036600319011261010d576004355f526004602052602060018060a01b0360405f205416604051908152f35b3461010d575f36600319011261010d576040515f5f546109ad81610b98565b80845290600181169081156103b957506001146109d45761036a8361035681850382610b12565b5f8080525f516020610e175f395f51905f52939250905b808210610a0357509091508101602001610356610346565b9192600181602092548385880101520191019092916109eb565b3461010d57602036600319011261010d576004359063ffffffff60e01b821680920361010d576020916301ffc9a760e01b8114908115610a77575b8115610a66575b5015158152f35b635b5e139f60e01b14905083610a5f565b6380ac58cd60e01b81149150610a58565b805180835260209291819084018484015e5f828201840152601f01601f1916010190565b600435906001600160a01b038216820361010d57565b602435906001600160a01b038216820361010d57565b606090600319011261010d576004356001600160a01b038116810361010d57906024356001600160a01b038116810361010d579060443590565b90601f8019910116810190811067ffffffffffffffff8211176106aa57604052565b92919267ffffffffffffffff82116106aa5760405191610b5e601f8201601f191660200184610b12565b82948184528183011161010d578281602093845f960137010152565b9080601f8301121561010d57816020610b9593359101610b34565b90565b90600182811c92168015610bc6575b6020831014610bb257565b634e487b7160e01b5f52602260045260245ffd5b91607f1691610ba7565b15610bd757565b60405162461bcd60e51b815260206004820152600e60248201526d1393d517d055551213d49256915160921b6044820152606490fd5b5f838152600260205260409020546001600160a01b039182169291168203610d85576001600160a01b0316908115610d4c578033148015610d2a575b8015610d0b575b610c5990610bd0565b805f52600360205260405f2080548015610cf7575f19019055815f52600360205260405f2080545f198114610cf7576001019055825f52600260205260405f20826bffffffffffffffffffffffff60a01b825416179055825f52600460205260405f206bffffffffffffffffffffffff60a01b81541690557fddf252ad1be2c89b69c2b068fc378daa952ba7f163c4a11628f55a4df523b3ef5f80a4565b634e487b7160e01b5f52601160045260245ffd5b505f838152600460205260409020546001600160a01b03163314610c50565b505f81815260056020908152604080832033845290915290205460ff16610c49565b60405162461bcd60e51b81526020600482015260116024820152701253959053125117d49150d25412515395607a1b6044820152606490fd5b60405162461bcd60e51b815260206004820152600a60248201526957524f4e475f46524f4d60b01b6044820152606490fd5b9081602091031261010d57516001600160e01b03198116810361010d5790565b15610dde57565b60405162461bcd60e51b815260206004820152601060248201526f155394d0519157d49150d2541251539560821b6044820152606490fdfe290decd9548b62a8d60345a988386fc84ba6bc95484008f6362f93160ef3e563b10e2d527612073b26eecdfd717e6a320cf44b4afac2b0732d9fcbe2b7fa0cf6a2646970667358221220988a92c095e0b4958fbe240095217b082135bca3af298ba2abc1cac5513614c664736f6c634300081c0033","linkReferences":{}},"methodIdentifiers":{"approve(address,uint256)":"095ea7b3","balanceOf(address)":"70a08231","getApproved(uint256)":"081812fc","initialize(string,string)":"4cd88b76","isApprovedForAll(address,address)":"e985e9c5","name()":"06fdde03","ownerOf(uint256)":"6352211e","safeTransferFrom(address,address,uint256)":"42842e0e","safeTransferFrom(address,address,uint256,bytes)":"b88d4fde","setApprovalForAll(address,bool)":"a22cb465","supportsInterface(bytes4)":"01ffc9a7","symbol()":"95d89b41","tokenURI(uint256)":"c87b56dd","transferFrom(address,address,uint256)":"23b872dd"},"storageLayout":{"storage":[{"astId":22489,"contract":"lib/forge-std/src/mocks/MockERC721.sol:MockERC721","label":"_name","offset":0,"slot":"0","type":"t_string_storage"},{"astId":22491,"contract":"lib/forge-std/src/mocks/MockERC721.sol:MockERC721","label":"_symbol","offset":0,"slot":"1","type":"t_string_storage"},{"astId":22522,"contract":"lib/forge-std/src/mocks/MockERC721.sol:MockERC721","label":"_ownerOf","offset":0,"slot":"2","type":"t_mapping(t_uint256,t_address)"},{"astId":22526,"contract":"lib/forge-std/src/mocks/MockERC721.sol:MockERC721","label":"_balanceOf","offset":0,"slot":"3","type":"t_mapping(t_address,t_uint256)"},{"astId":22577,"contract":"lib/forge-std/src/mocks/MockERC721.sol:MockERC721","label":"_getApproved","offset":0,"slot":"4","type":"t_mapping(t_uint256,t_address)"},{"astId":22583,"contract":"lib/forge-std/src/mocks/MockERC721.sol:MockERC721","label":"_isApprovedForAll","offset":0,"slot":"5","type":"t_mapping(t_address,t_mapping(t_address,t_bool))"},{"astId":22616,"contract":"lib/forge-std/src/mocks/MockERC721.sol:MockERC721","label":"initialized","offset":0,"slot":"6","type":"t_bool"}],"types":{"t_address":{"encoding":"inplace","label":"address","numberOfBytes":"20"},"t_bool":{"encoding":"inplace","label":"bool","numberOfBytes":"1"},"t_mapping(t_address,t_bool)":{"encoding":"mapping","key":"t_address","label":"mapping(address => bool)","numberOfBytes":"32","value":"t_bool"},"t_mapping(t_address,t_mapping(t_address,t_bool))":{"encoding":"mapping","key":"t_address","label":"mapping(address => mapping(address => bool))","numberOfBytes":"32","value":"t_mapping(t_address,t_bool)"},"t_mapping(t_address,t_uint256)":{"encoding":"mapping","key":"t_address","label":"mapping(address => uint256)","numberOfBytes":"32","value":"t_uint256"},"t_mapping(t_uint256,t_address)":{"encoding":"mapping","key":"t_uint256","label":"mapping(uint256 => address)","numberOfBytes":"32","value":"t_address"},"t_string_storage":{"encoding":"bytes","label":"string","numberOfBytes":"32"},"t_uint256":{"encoding":"inplace","label":"uint256","numberOfBytes":"32"}}},"id":17}