{"abi":[{"type":"function","name":"createStudent","inputs":[{"name":"_name","type":"string","internalType":"string"},{"name":"_studentAddress","type":"address","internalType":"address"},{"name":"_rollNumber","type":"uint256","internalType":"uint256"}],"outputs":[],"stateMutability":"nonpayable"},{"type":"function","name":"studentInstance","inputs":[],"outputs":[{"name":"name","type":"string","internalType":"string"},{"name":"studentAddress","type":"address","internalType":"address"},{"name":"rollNumber","type":"uint256","internalType":"uint256"}],"stateMutability":"view"},{"type":"event","name":"StudentAdd","inputs":[{"name":"","type":"tuple","indexed":false,"internalType":"struct StudentInfo.Student","components":[{"name":"name","type":"string","internalType":"string"},{"name":"studentAddress","type":"address","internalType":"address"},{"name":"rollNumber","type":"uint256","internalType":"uint256"}]}],"anonymous":false}],"bytecode":{"object":"0x60808060405234601557610429908161001a8239f35b5f80fdfe6080806040526004361015610012575f80fd5b5f3560e01c90816303ab7ee0146100a9575063a5f9442c14610032575f80fd5b346100a5575f3660031901126100a5576040516100598161005281610349565b03826102ef565b608060018060a01b0360015416916020600254604051948593606085528051938491826060880152018686015e5f84840186015260208401526040830152601f01601f19168101030190f35b5f80fd5b346100a55760603660031901126100a55760043567ffffffffffffffff81116100a557366023820112156100a55780600401359067ffffffffffffffff82116102db57610100601f8301601f1916602001846102ef565b81835236602483830101116100a557815f9260246020930183860137830101526024356001600160a01b038116908190036100a557815167ffffffffffffffff81116102db576101505f54610311565b601f8111610274575b50602092601f821160011461020a57928192935f926101ff575b50508160011b915f199060031b1c1916175f555b6bffffffffffffffffffffffff60a01b60015416176001556044356002557f8ded47ce9ff8104e9d326a805a033a28056141f24be84266e03b2896869af4776040516020815260606020820152806101e160808201610349565b6001546001600160a01b0316604083015260025460608301520390a1005b015190508380610173565b601f198216935f80525f5160206103d45f395f51905f52915f5b86811061025c5750836001959610610244575b505050811b015f55610187565b01515f1960f88460031b161c19169055838080610237565b91926020600181928685015181550194019201610224565b5f8052601f820160051c5f5160206103d45f395f51905f520190602083106102c6575b601f0160051c5f5160206103d45f395f51905f5201905b8181106102bb5750610159565b5f81556001016102ae565b5f5160206103d45f395f51905f529150610297565b634e487b7160e01b5f52604160045260245ffd5b90601f8019910116810190811067ffffffffffffffff8211176102db57604052565b90600182811c9216801561033f575b602083101461032b57565b634e487b7160e01b5f52602260045260245ffd5b91607f1691610320565b905f915f549061035882610311565b80825291600181169081156103b75750600114610373575050565b5f8080529293509091905f5160206103d45f395f51905f525b83831061039d575060209250010190565b60018160209294939454838587010152019101919061038c565b9050602093945060ff929192191683830152151560051b01019056fe290decd9548b62a8d60345a988386fc84ba6bc95484008f6362f93160ef3e563a26469706673582212208ed3fb477cd3c8200f728410859209e8416e7d8879bbd38fcb184ee6fb82c0c164736f6c634300081c0033","linkReferences":{}},"methodIdentifiers":{"createStudent(string,address,uint256)":"03ab7ee0","studentInstance()":"a5f9442c"},"storageLayout":{"storage":[{"astId":36225,"contract":"src/Student.sol:StudentInfo","label":"studentInstance","offset":0,"slot":"0","type":"t_struct(Student)36217_storage"}],"types":{"t_address":{"encoding":"inplace","label":"address","numberOfBytes":"20"},"t_string_storage":{"encoding":"bytes","label":"string","numberOfBytes":"32"},"t_struct(Student)36217_storage":{"encoding":"inplace","label":"struct StudentInfo.Student","numberOfBytes":"96","members":[{"astId":36212,"contract":"src/Student.sol:StudentInfo","label":"name","offset":0,"slot":"0","type":"t_string_storage"},{"astId":36214,"contract":"src/Student.sol:StudentInfo","label":"studentAddress","offset":0,"slot":"1","type":"t_address"},{"astId":36216,"contract":"src/Student.sol:StudentInfo","label":"rollNumber","offset":0,"slot":"2","type":"t_uint256"}]},"t_uint256":{"encoding":"inplace","label":"uint256","numberOfBytes":"32"}}},"id":20}